:100000000C9462010C9493010C9493010C94930151
:100010000C9493010C9493010C9493010C94930110
:100020000C9493010C9493010C9493010C94930100
:100030000C9493010C9493010C9493010C949301F0
:100040000C9493010C9493010C9493010C949301E0
:100050000C9493010C9493010C9493010C94A008BC
:100060000C9493010C9414090C94EA080C949301D9
:100070000C9493010C9493010C9493010C949301B0
:100080000C9493010C9493010C9493010C949301A0
:100090000C9493010C9493010C9493010C944A09D1
:1000A0000C9493010C9493010C9493010C94930180
:1000B0000C9493010C9493010C9493010C94930170
:1000C0000C9493010C9493010C9493010C94930160
:1000D0000C9493010C9493010C9493010C94930150
:1000E0000C949301036EDB363D9A9999993DABAA26
:1000F000AA2A3E000000803F084AD73B3BCE016E53
:1001000084BCBFFDC12F3D6C74319ABD56833DDA6E
:100110003D00C77F11BED9E4BB4C3E916BAAAABE7D
:10012000000000803F072C7AA5BA6CC590DA3B939B
:1001300065FC8BBC53F810FD3C5692834DBD879DEA
:100140003AB63DCBC9BF5BBE73DA0FC93F000C9412
:10015000E3050C94D3050C9479020C9478020C946A
:10016000E0010C945D030C94FD050C94FF010C94CC
:1001700003020C94F1010C94B6020C9410030C943D
:10018000FB010C941B020C9411020C9417020C94AA
:10019000E8010C94CA020C9459060C94D8020C94F1
:1001A000D4050C94DC010C940D020C94C5010C9444
:1001B000A7020C946E0A0C94F5010C94F6050C94AD
:1001C000EB010C9409020C942A060C94CA010C94BD
:1001D000E4010C947A0200002200250028002B0084
:1001E0002E003100340002010000050108010B015E
:1001F00005050505070508080808020202020A0AA3
:1002000008080404040401010101010101010303C0
:10021000030303030303040707070C0C0C0C0C0C6B
:100220000C0C0202020206060606060606060B0B68
:100230000B0B0B0B0B0B01021020200808102040A9
:10024000102040800201020108040201010204089A
:100250001020408080402010080402018004020128
:100260008040201008040201080402010102040871
:1002700010204080010204081020408000000A0B7A
:1002800002090C0D0E080703040100000000000025
:10029000000000000000000000000000000000005E
:1002A000000000000000000012111000000000001B
:1002B000000000000000000000000000000000003E
:1002C00000006E0A11241FBECFEFD1E2DEBFCDBF0A
:1002D00000E00CBF13E0A0E0B2E0EAE7FEE400E0DB
:1002E0000BBF02C007900D92A635B107D9F725E0E4
:1002F000A6E5B3E001C01D92AE3BB207E1F711E005
:10030000C2E6D1E000E006C021970109802FFE017E
:100310000E94A823C136D10780E00807A9F70E94F0
:10032000270C0C943B270C940000282F30E0F90197
:10033000E458FD4F9491F901EA5CFD4F449120513E
:100340003E4FF9012491222309F435C0992311F17C
:1003500091509231F8F4E92FF0E08827ED54FE4FE8
:100360008F4F0C94A823E401E801C501DC01E001F2
:10037000CA01EB01F101F501FB01FF0103020902D2
:100380000D02CA01110217021B02809180008F77B3
:1003900080938000E22FF0E0EE0FFF1FEA52FE4F45
:1003A000A591B4918FB7F894EC91611148C0409534
:1003B0004E234C938FBF0895809180008F7DE8CFAE
:1003C00080918000877FE4CF84B58F7784BDE2CFB2
:1003D00084B58F7DFBCF8091B0008F778093B00084
:1003E000D9CF8091B0008F7DF9CF809190008F7729
:1003F00080939000CFCF809190008F7DF9CF809136
:100400009000877FF5CF8091A0008F778093A00028
:10041000C1CF8091A0008F7DF9CF8091A000877F10
:10042000F5CF809120018F7780932001B3CF809109
:1004300020018F7DF9CF80912001877FF5CF4E2B52
:10044000B8CF3FB7F8948091AF039091B003A091DB
:10045000B103B091B20326B5A89B05C02F3F19F098
:100460000196A11DB11D3FBFBA2FA92F982F882734
:10047000BC01CD01620F711D811D911D42E0660F0F
:10048000771F881F991F4A95D1F708958F929F92E1
:10049000AF92BF92CF92DF92EF92FF924B015C013D
:1004A0000E9421026B017C010E9421026C197D09CE
:1004B0008E099F09683E734081059105A8F321E0EC
:1004C000821A9108A108B10888EEC80E83E0D81EF0
:1004D000E11CF11C81149104A104B10429F7FF90DF
:1004E000EF90DF90CF90BF90AF909F908F90089546
:1004F00008950895AF92BF92CF92DF92EF92FF924C
:100500000F931F93CF93DF936C017B018B01040F3B
:10051000151FEB015E01AE18BF08C017D10759F0D7
:100520006991D601ED91FC910190F081E02DC60119
:100530001995892B79F7C501DF91CF911F910F9103
:10054000FF90EF90DF90CF90BF90AF900895FC01A7
:10055000538D448D252F30E0842F90E0821B930B28
:10056000541710F0CF96089501970895FC01918DCE
:10057000828D981761F0A28DAE0FBF2FB11D5D96D1
:100580008C91928D9F5F9F73928F90E008958FEF73
:100590009FEF0895FC01918D828D981731F0828D27
:1005A000E80FF11D858D90E008958FEF9FEF08957E
:1005B000FC01918D228D892F90E0805C9F4F821BE2
:1005C00091098F739927089585E294E00E94D802DB
:1005D00021E0892B09F420E0822F0895FC01A48DED
:1005E000A80FB92FB11DA35ABF4F2C91848D90E055
:1005F00001968F739927848FA689B7892C93A08938
:10060000B1898C91837080648C93938D848D9813C1
:1006100006C00288F389E02D80818F7D8083089554
:10062000EF92FF920F931F93CF93DF93EC0181E042
:10063000888F9B8D8C8D98131AC0E889F9898081E9
:1006400085FF15C09FB7F894EE89FF896083E8891C
:10065000F98980818370806480839FBF81E090E00E
:10066000DF91CF911F910F91FF90EF900895F62E9B
:100670000B8D10E00F5F1F4F0F731127E02E8C8D35
:100680008E110CC00FB607FCFACFE889F98980817A
:1006900085FFF5CFCE010E94EE02F1CFEB8DEC0F7E
:1006A000FD2FF11DE35AFF4FF0829FB7F8940B8F97
:1006B000EA89FB8980818062CFCFCF93DF93EC0101
:1006C000888D8823B9F0AA89BB89E889F9898C913A
:1006D00085FD03C0808186FD0DC00FB607FCF7CFF6
:1006E0008C9185FFF2CF808185FFEDCFCE010E94F6
:1006F000EE02E9CFDF91CF91089580E090E0892B61
:1007000029F00E94E40281110E94000080E090E044
:10071000892B49F080E090E0892B29F00E940000AD
:1007200081110E94000080E090E0892B49F080E078
:1007300090E0892B29F00E94000081110E940000A6
:1007400080E090E0892B49F080E090E0892B29F04F
:100750000E94000081110C940000089520917703FD
:10076000260F3327331F21323105ECF420911F046B
:10077000FC0190E080E0243069F082E00895A091CF
:1007800077032191AC01495A5C4FA40FB52FB11DDD
:100790002C930196861798F380917703680F6093E6
:1007A000770380E0089581E0089510921F0481E0AE
:1007B0008093FE031092F90361E084E10E949501A9
:1007C00061E085E10E949501E9EBF0E080818E7F98
:1007D000808380818D7F808388E48093B80085E466
:1007E0008093BC000895CF93DF9391E090935603DC
:1007F0008823B9F0C091B800D091BA008091BC00B4
:100800008A7B8093BC0060E084E10E94950160E0F7
:1008100085E10E9495010E94D503D093BA00C09350
:10082000B800DF91CF910895CF92DF92EF92FF92BF
:100830000F931F93CF93DF93D82FC62F613208F009
:1008400098C00E9421026B017C0180911F048111DC
:100850006BC081E080931F048093FE039FEF909311
:10086000FD031092FC039C0F9093FB038093FA030B
:100870008091FA03DD0FD82BD093FA038091F9030E
:10088000813009F078C01092F9030E9421026B01B7
:100890007C018091FA038093BB00809121049091A8
:1008A0002204A0912304B0912404892B8A2B8B2B42
:1008B000A1F00E94210200912104109122042091B4
:1008C0002304309124046C197D098E099F090617B1
:1008D00017072807390708F448C08091BC0083FD3A
:1008E000D8CF85EC8093BC000E9421026B017C0173
:1008F00080911F04813009F440C08091FC038C1763
:1009000010F4C091FC03E9EDF3E0AFEFB3E080E059
:100910008C1355C08C2FDF91CF911F910F91FF90B9
:10092000EF90DF90CF900895809121049091220460
:10093000A0912304B0912404892B8A2B8B2B09F4DA
:1009400084CF0E9421020091210410912204209161
:100950002304309124046C197D098E099F09061720
:1009600017072807390708F070CF809120040E94EC
:10097000F303C0E0CFCF85EEB5CF809121049091F5
:100980002204A0912304B0912404892B8A2B8B2B61
:1009900009F4AECF0E94210200912104109122049B
:1009A00020912304309124046C197D098E099F093C
:1009B000061717072807390708F09ACFD6CF919165
:1009C0009D938F5FA5CF8F929F92AF92BF92CF9250
:1009D000DF92EF92FF920F931F93CF93DF93D0910B
:1009E000D803D13208F0D7C0182FC091D7030E9486
:1009F00021026B017C0180911F0481116BC082E098
:100A000080931F041093FE038FEF8093FD031092D9
:100A1000FC03D093FB03A7EBB3E0E9EDF3E080E048
:100A2000D81391C01092FA038091FA03CC0FC82B0F
:100A3000C093FA038091F903813009F088C01092C5
:100A4000F9030E9421026B017C018091FA038093DB
:100A5000BB008091210490912204A0912304B091C5
:100A60002404892B8A2B8B2BA1F00E942102009158
:100A700021041091220420912304309124046C1944
:100A80007D098E099F09061717072807390708F4FB
:100A900042C08091BC0083FDD8CF85EC8093BC0020
:100AA0000E9421026B017C0180911F04823009F4B5
:100AB00050C08091FD038F3F09F46FC08091FD030A
:100AC000803209F46CC08091FD03803309F469C061
:100AD00084E026C08091210490912204A0912304F7
:100AE000B0912404892B8A2B8B2B09F484CF0E948C
:100AF00021028090210490902204A0902304B090C1
:100B000024046C197D098E099F0986169706A8068C
:100B1000B90608F070CF809120040E94F30385E0AD
:100B20001092B6031092D8031092B503DF91CF91C3
:100B30001F910F91FF90EF90DF90CF90BF90AF90FB
:100B40009F908F9008959D9191938F5F69CF85EECF
:100B5000A5CF8091210490912204A0912304B0910B
:100B60002404892B8A2B8B2B09F49ECF0E9421020F
:100B70000091210410912204209123043091240437
:100B80006C197D098E099F09061717072807390771
:100B900008F08ACFC0CF81E0C3CF80E0C1CF82E030
:100BA000BFCF83E0BDCF0895E091B4038091B3033C
:100BB000E81730F4F0E0E150FC4F808190E00895B8
:100BC0008FEF9FEF08959091B4038091B3032FEFBF
:100BD0003FEF981748F4E92FF0E0E150FC4F2081F7
:100BE00030E09F5F9093B403C90108958091B303EF
:100BF0009091B403891B990B0895CF92DF92EF92E5
:100C0000FF920F931F93CF93DF937C01CB018A0157
:100C10002091B503222389F0EB016B01C40ED51E90
:100C2000CC15DD0569F06991D701ED91FC9101903A
:100C3000F081E02DC7011995F3CF642F0E94AE0318
:100C4000C801DF91CF911F910F91FF90EF90DF903E
:100C5000CF900895CF93DF931F92CDB7DEB769830E
:100C60002091B5032223F9F02091D803203258F0C7
:100C700021E030E0FC013383228390E080E00F909C
:100C8000DF91CF9108958091B603E82FF0E0E95409
:100C9000FC4F998190838F5F8093B6038093D80334
:100CA00081E090E0ECCF61E0CE0101960E94AE03BE
:100CB000F7CF90E080E00895FC0101900020E9F773
:100CC0003197AF01481B590BBC0185E294E00C94AD
:100CD0007A028F929F92AF92BF920F931F93CF93FE
:100CE000DF93CDB7DEB7A1970FB6F894DEBF0FBE86
:100CF000CDBF19A2423008F44AE08E010F5D1F4FAC
:100D0000842E912CB12CA12CA50194010E94862344
:100D1000E62FB901CA01EA30F4F4E05DD801EE93A0
:100D20008D01232B242B252B79F790E080E0109761
:100D300019F0CD010E945C06A1960FB6F894DEBFB3
:100D40000FBECDBFDF91CF911F910F91BF90AF909C
:100D50009F908F900895E95CE1CFCF93DF930E943D
:100D60005C06EC0180E592E00E945C068C0F9D1F02
:100D7000DF91CF9108954F925F926F927F928F9201
:100D80009F92AF92BF92CF92DF92EF92FF926B0150
:100D90007C01AC019B010E9421278823C1F083E5DF
:100DA00092E00E945C067C0180E592E00E945C0675
:100DB0008E0D9F1DFF90EF90DF90CF90BF90AF9072
:100DC0009F908F907F906F905F904F900895460115
:100DD0005701E894B7F82FEF3FEF4FE75FE7C50102
:100DE000B4010E94212781110DC02FEF3FEF4FE783
:100DF0005FE7C501B4010E94AA2418161CF487E518
:100E000092E0CFCF2FEF3FEF4FE75FE4C701B6018E
:100E10000E945D2618161CF48BE592E0C2CF2FEFDE
:100E20003FEF4FE75FECC701B6010E94AA2487FDA0
:100E3000F3CF20E030E0A901C701B6010E94AA2447
:100E4000B12CA12C87FF0AC06DE285E294E00E94DC
:100E500010035C01F7FAF094F7F8F0942AE037ED0C
:100E600043EA5BE3C701B6010E94B1232B013C01B9
:100E70000E9421256B017C010E9450259B01AC0141
:100E8000C301B2010E94B0232B013C014AE0C7011B
:100E9000B6010E9469067C01EA0CFB1C6EE285E249
:100EA00094E00E941003E80EF91E20E030E040E2DA
:100EB00051E4C301B2010E946A262B013C010E9449
:100EC00021254B01B12CA12C4AE0C501B4010E949F
:100ED0006906E80EF91EC501B4010E9450259B0168
:100EE000AC01C301B2010E94B02320E030E040E237
:100EF00051E40E946A260E94212590E080E04AE0A9
:100F00000E946906E80EF91E4FCFCF93DF93FC01D4
:100F10002081273091F0EC018FE592E00E945C0681
:100F2000688170E090E080E04AE00E94690680E518
:100F300092E0DF91CF910C945C06DF91CF91089500
:100F4000CF93C82F8091BB059091BC0521E02093E1
:100F5000B503C093D7031092B6031092D803DC01F7
:100F6000ED91FC910190F081E02D199580E00E94B7
:100F7000E3048093BD05882321F08DEB95E00E946A
:100F8000850761E08C2F0E9414041092B4038093B3
:100F9000B3038091BB059091BC05DC01ED91FC9100
:100FA0000084F185E02D1995892B69F08091BB05AE
:100FB0009091BC05DC01ED91FC910284F385E02D5C
:100FC0001995CF91089580E0FCCFCF93C42FA091C5
:100FD000BB05B091BC0591E09093B5038093D70316
:100FE0001092B6031092D803ED91FC9111970190E5
:100FF000F081E02DCD0119958091BB059091BC0544
:10100000DC01ED91FC910190F081E02D6C2F1995A0
:1010100081E00E94E3048093BD05882329F08DEBD5
:1010200095E0CF910C948507CF9108950F931F936E
:10103000CF93DF93C82FD42F89018091BB05909166
:10104000BC0521E02093B503C093D7031092B603EB
:101050001092D803DC01ED91FC910190F081E02D1C
:10106000199580E00E94E3048093BD05882321F058
:101070008DEB95E00E9485076D2F8C2F0E94140444
:101080001092B4038093B303C0E08091BB059091AC
:10109000BC05DC01ED91FC910084F185E02D1995F2
:1010A000892B89F08091BB059091BC05DC01ED9105
:1010B000FC910284F385E02D1995F801EC0FF11DE8
:1010C0008083CF5FE2CFDF91CF911F910F91089581
:1010D00085ED8093BC008091210490912204A09121
:1010E0002304B09124040796A11DB11D23E0B695F9
:1010F000A795979587952A95D1F72091BC0024FD57
:1011000003C010921F0408954091210450912204BD
:101110006091230470912404452B462B472B69F3DF
:101120000097A105B10541F025E32A95F1F70000EC
:101130000197A109B109E1CF809120040C94F30338
:101140001F920F920FB60F9211242F933F938F93FC
:101150009F93AF93BF938091AB039091AC03A09109
:10116000AD03B091AE033091AA0323E0230F2D37D6
:1011700058F50196A11DB11D2093AA038093AB03DE
:101180009093AC03A093AD03B093AE038091AF03F3
:101190009091B003A091B103B091B2030196A11D4B
:1011A000B11D8093AF039093B003A093B103B093AC
:1011B000B203BF91AF919F918F913F912F910F906B
:1011C0000FBE0F901F90189526E8230F0296A11DC1
:1011D000B11DD2CF1F920F920FB60F9211240BB6F2
:1011E0000F922F933F934F935F936F937F938F93C0
:1011F0009F93AF93BF93EF93FF9385E294E00E9498
:10120000EE02FF91EF91BF91AF919F918F917F91EE
:101210006F915F914F913F912F910F900BBE0F9067
:101220000FBE0F901F9018951F920F920FB60F923E
:1012300011240BB60F922F938F939F93EF93FF93ED
:10124000E0913504F09136048081E0913B04F09107
:101250003C0482FD1DC0908180913E048F5F8F739E
:1012600020913F04821741F0E0913E04F0E0EB5DF5
:10127000FB4F958F80933E04FF91EF919F918F914B
:101280002F910F900BBE0F900FBE0F901F901895CF
:101290008081F2CF1F920F920FB60F9211240BB6DE
:1012A0000F922F933F934F935F936F937F938F93FF
:1012B0009F93AF93BF93EF93FF938091B900887F83
:1012C000803609F44DC008F040C0883209F4A9C046
:1012D00028F5803109F49DC0C8F4882309F4FBC0C7
:1012E000883009F496C0FF91EF91BF91AF919F9123
:1012F0008F917F916F915F914F913F912F910F90BF
:101300000BBE0F900FBE0F901F901895883109F4F7
:1013100088C0803241F78093FD0314C0803409F403
:101320009DC040F48033B9F38833E9F68093FD0320
:1013300085ECB0C0803509F485C0883509F496C0C5
:10134000883489F60E946808CECF883909F48CC0A9
:1013500038F5883729F050F4883611F0803719F6BF
:1013600083E080931F041092990357C0883809F4D2
:101370007BC0803919F0803809F0B5CF809199038E
:10138000803208F071C0E091990381E08E0F809364
:1013900099038091BB00F0E0E758FC4F80833DC08B
:1013A000803B39F0E0F4803A09F479C0883A09F0DA
:1013B0009ACF84E080931F041092780310927703F1
:1013C000E0919C03F0919D03199580917703811121
:1013D0000FC081E0809377031092570309C0803CCF
:1013E00009F4A6CF883C09F4A3CF883B09F07BCF52
:1013F000E091780381E08E0F80937803F0E0E95A62
:10140000FC4F80818093BB0090917803809177039B
:1014100029C08091FA038093BB0085EC8093BC00C7
:1014200062CF9091FC038091FB03981758F5E091EF
:10143000FC0381E08E0F8093FC03F0E0E752FC4F49
:101440008081E9CFE091FC0381E08E0F8093FC0363
:101450008091BB00F0E0E752FC4F80839091FC0349
:101460008091FB039817C8F285E8D8CFE091FC0380
:1014700081E08E0F8093FC038091BB00F0E0E75287
:10148000FC4F80838091FE0381115CCF81E08093CB
:10149000F90384EA8093BC0010921F0424CF85ECEA
:1014A0008093BC0010921F0480919903803230F425
:1014B000E0919903F0E0E758FC4F108260919903A6
:1014C00070E0E0919A03F0919B0389E793E019950E
:1014D0001092990308CF1092FD0334CFE5E2F4E0B7
:1014E0001382128288EE93E0A0E0B0E084839583BB
:1014F000A683B78320E332E03183208325EC30E0FC
:101500003587248724EC30E03787268720EC30E0CD
:10151000318B208B21EC30E0338B228B22EC30E0BE
:10152000358B248B26EC30E0378B268B118E128E78
:10153000138E148EE2ECF4E013821282848395837E
:10154000A683B78382E492E091838083EEECF4E09B
:1015500088E6808383E090E0928381839483838311
:1015600081E090E09683858324E0278323E0208731
:10157000218731E0328723871486158616861786E1
:10158000108A118A128A138A148A158A168A178A6F
:10159000108E118E128E138E148E158E168E178E3F
:1015A00010A211A212A213A214A215A216A217A28F
:1015B00010A611A612A613A614A615A616A617A65F
:1015C00010AA11AA12AA13AA14AA15AA16AA17AA2F
:1015D00010AE11AE12AE13AE14AE15AE16AE17AEFF
:1015E00010920E0510920F05109210051092110521
:1015F0001092120510921305109214051092150501
:101600002CE0E0E0F2E0A6E1B5E001900D922A9531
:10161000E1F74CEE51E560EF70EC409322055093FA
:1016200023056093240570932505109227051092D9
:101630002605109228051092290510922A0510926D
:101640002B05ECE2F5E028E1DF011D922A95E9F790
:1016500010924405109245051092460510924705D8
:10166000109248051092490510924A0510924B05B8
:1016700010924C0510924D0510924E0510924F0598
:101680001092500510925105109252051092530578
:101690001092540510925505109256051092570558
:1016A000109258051092590510925A0510925B0538
:1016B00010925C0510925D0510925E0510925F0518
:1016C00010926005109261051092620510926305F8
:1016D00010926405109265051092660510926705D8
:1016E00040E050E060E87FE340936805509369056F
:1016F00060936A0570936B0510926C0510926D05EE
:1017000010926E0510926F0510927005109271057F
:10171000109272051092730510927405109275055F
:10172000109276051092770510927805109279053F
:1017300010927A0510927B0510927C0510927D051F
:1017400010927E0510927F051092800510928105FF
:1017500010928205109283051092840510928505DF
:1017600010928605109287051092880510928905BF
:1017700010928A0510928B0510928C0510928D059F
:1017800010928E0510928F0543EC58EB62E37FE3D5
:101790004093900550939105609392057093930543
:1017A0001092940510929505109296051092970547
:1017B0004EE057EC6AE17FE340939805509399051A
:1017C00060939A0570939B0510929C0510929D055D
:1017D00010929E0510929F0540E050E060EF71E48A
:1017E0004093A0055093A1056093A2057093A305B3
:1017F0001092A4051092A5051092A6051092A705B7
:101800009093A9058093A8051092AA051092AB05A4
:101810001092AC051092AD051092AE051092AF0576
:101820001092B0051092B1051092B2051092B30556
:101830001092B4051092B5059093B7058093B60544
:101840001092B8053093B9051092BA050895CF9358
:10185000DF93CDB7DEB7CA5AD1090FB6F894DEBF11
:101860000FBECDBF789484B5826084BD84B581609D
:1018700084BD85B5826085BD85B5816085BD80915B
:101880006E00816080936E001092810080918100D3
:1018900082608093810080918100816080938100CB
:1018A000809180008160809380008091B10084608D
:1018B0008093B1008091B00081608093B0008091EE
:1018C000910082608093910080919100816080936B
:1018D0009100809190008160809390008091A100A0
:1018E00082608093A1008091A10081608093A1001B
:1018F0008091A00081608093A0008091210182608E
:101900008093210180912101816080932101809148
:10191000200181608093200180917A00846080930F
:101920007A0080917A00826080937A0080917A00B8
:10193000816080937A0080917A00806880937A0039
:101940001092C100E0913504F091360482E080836A
:10195000E0913104F09132041082E0913304F0916F
:1019600034048FEC808310923D04E0913904F091AF
:101970003A0486E08083E0913704F0913804808156
:1019800080618083E0913704F09138048081886021
:101990008083E0913704F0913804808180688083EF
:1019A000E0913704F091380480818F7D808310921C
:1019B000B4031092B3031092B6031092D8030E949E
:1019C000D50388E792E090939D0380939C0389E779
:1019D00092E090939B0380939A0360ED77E080E020
:1019E00090E00E94460288E68093CE0483E090E077
:1019F0009093D0048093CF049093D2048093D10429
:101A000081E090E09093D4048093D30484E08093A9
:101A1000D50483E08093D6048093D70491E090931B
:101A2000D8048093D90482EC94E09093BC05809311
:101A3000BB0565E788E60E94A007182F8091BA05CC
:101A4000882379F081E792E00E945C06612F70E0C4
:101A500090E080E040E10E94690680E592E00E940B
:101A60005C0680E9810F823018F0133709F0EFC56A
:101A70008091CF049091D00484309105D0F5880FE7
:101A8000991F880F991FFC01E45EFD4F80819181B1
:101A9000A281B3818093DA049093DB04A093DC04E9
:101AA000B093DD048091D1049091D20484309105EB
:101AB00020F5880F991F880F991FFC01E45FFD4FE7
:101AC00080819181A281B3818093DE049093DF04B1
:101AD000A093E004B093E1048091D3049091D404E6
:101AE000009779F0019709F4A2C580E090E0DC014D
:101AF0000CC080E090E0DC01CDCF80E090E0DC0124
:101B0000E3CF8FEF9BEEAFEBB0E48093E2049093D2
:101B1000E304A093E404B093E50440E86BE680910D
:101B2000CE040E94E50764E670E080E090E00E9449
:101B3000460240E06BE68091CE040E94E50764E631
:101B400070E080E090E00E94460241E06BE6809108
:101B5000CE040E94E50768EC70E080E090E00E940F
:101B600046024091D7046AE18091CE040E94E507C5
:101B70004091D50469E18091CE040E94E5076BE1B4
:101B80008091CE040E94A0074091D104440F440FDD
:101B9000440F8470842B4091D60440954370482BA9
:101BA0006BE18091CE040E94E5076CE18091CE0448
:101BB0000E94A0074091CF04440F440F440F877048
:101BC000482B6CE18091CE040E94E5076DE1809185
:101BD000CE040E94A0074091D804440F440F440F44
:101BE00040954870807F482B8091D9048770482B9E
:101BF0006DE18091CE040E94E50742E267E38091A7
:101C0000CE040E94E50741E068E38091CE040E9483
:101C1000E50764E670E080E090E00E94460260E044
:101C20008CE00E94A007182F8091BA05882379F0D4
:101C300085E892E00E945C06612F70E090E080E011
:101C400040E10E94690680E592E00E945C0618343B
:101C500009F0F2C440E06AE08CE00E94E5076AE027
:101C600070E080E090E00E9446024FE06AE08CE085
:101C70000E94E5076AE070E080E090E00E94460282
:101C80009E012F5F3F4F43E060E18CE00E94160809
:101C900069816058770B072E000C880B990B0E9406
:101CA000522520E030E040E85BE30E946A2620E015
:101CB00030E040E85FE30E94B1236093FE0470933C
:101CC000FF0480930005909301056A816058770BAB
:101CD000072E000C880B990B0E94522520E030E063
:101CE00040E85BE30E946A2620E030E040E85FE3E2
:101CF0000E94B1236093020570930305809304054D
:101D0000909305056B816058770B072E000C880BAC
:101D1000990B0E94522520E030E040E85BE30E94EE
:101D20006A2620E030E040E85FE30E94B123609340
:101D3000060570930705809308059093090540E018
:101D40006AE08CE00E94E5076AE070E080E090E0E5
:101D50000E9446024091D3044295407F46606AE06B
:101D60008CE00E94E5076AE070E080E090E00E946D
:101D700046028091BA05882371F188E992E00E94B9
:101D8000AD0689EB92E00E945C066091FE047091C2
:101D9000FF0480910005909101050E94BB068AED29
:101DA00092E00E945C0660910205709103058091AB
:101DB0000405909105050E94BB068BEF92E00E94FE
:101DC0005C06609106057091070580910805909169
:101DD00009050E94BB0681E08093B80580E090E091
:101DE000A8EAB1E48093220590932305A0932405EB
:101DF000B09325058091B805882311F40C94B9217E
:101E00006AE38091CE040E94A00780FD02C00C947A
:101E1000B9219E012F5F3F4F4EE06BE38091CE04CE
:101E20000E94160869817A817627672776278B803A
:101E30009C80982489249824AD80BE80BA24AB2449
:101E4000BA240F811885102701271027C984DA8446
:101E5000DC24CD24DC24EB84FC84FE24EF24FE244B
:101E60002D843E843224232432244090DA0450907E
:101E7000DB046090DC047090DD04072E000C880BFE
:101E8000990B0E945225A30192010E946A26609339
:101E90004405709345058093460590934705B4012A
:101EA000990C880B990B0E945225A30192010E9464
:101EB0006A26609348057093490580934A0590937C
:101EC0004B05B501BB0C880B990B0E945225A30151
:101ED00092010E946A2660934C0570934D05809391
:101EE0004E0590934F051093270500932605B801E2
:101EF000110F880B990B0E9452252CE53FEE46EA04
:101F000053E40E94AF2420E030E048EA51E40E940C
:101F1000B123609328057093290580932A05909337
:101F20002B058090DE049090DF04A090E004B09038
:101F3000E104B601DD0C880B990B0E945225A50126
:101F400094010E946A266093500570935105809316
:101F5000520590935305B701FF0C880B990B0E9413
:101F60005225A50194010E946A266093540570933E
:101F700055058093560590935705B101330C880B96
:101F8000990B0E945225A50194010E946A26609334
:101F900058057093590580935A0590935B0562E04C
:101FA0008CE00E94A007182F80FFD3C09E012F5FF6
:101FB0003F4F47E063E08CE00E94160811FDC9C066
:101FC0008F8183FDC6C0A980BA800B811C812D80C2
:101FD0003E80C090E204D090E304E090E404F090EE
:101FE000E5042FEF3BEE4FEB5FE3C701B6010E9424
:101FF000AF242B013C01B501BB0C880B990B0E944F
:102000005225A70196010E946A262091FE04309174
:10201000FF0440910005509101050E946A264B0182
:102020005C0120910A0530910B0540910C055091FF
:102030000D05C301B2010E946A269B01AC01C501D6
:10204000B4010E94B02320911605309117054091EC
:102050001805509119050E946A2660935C057093DB
:102060005D0580935E0590935F05B801110F880BA5
:10207000990B0E945225A70196010E946A26209181
:1020800002053091030540910405509105050E9419
:102090006A264B015C0120910E0530910F0540919D
:1020A000100550911105C301B2010E946A269B01DF
:1020B000AC01C501B4010E94B02320911A053091F2
:1020C0001B0540911C0550911D050E946A266093D6
:1020D0006005709361058093620590936305B1017B
:1020E000330C880B990B0E945225A70196010E9480
:1020F0006A26209106053091070540910805509108
:1021000009050E946A266B017C012091120530911D
:1021100013054091140550911505C301B2010E94A9
:102120006A269B01AC01C701B6010E94B023209131
:102130001E0530911F0540912005509121050E94F8
:102140006A26609364057093650580936605909395
:102150006705209144053091450540914605509111
:102160004705C358DF4F288339834A835B83CD57A4
:10217000D0405058C956DF4F288339834A835B8348
:10218000C759D0408091480590914905A0914A05D2
:10219000B0914B05E5968CAF9DAFAEAFBFAFE59765
:1021A00020914C0530914D0540914E0550914F05C1
:1021B000E9962CAF3DAF4EAF5FAFE99725E33AEF1D
:1021C0004EE85CE360915005709151058091520595
:1021D000909153050E946A26162F072F382E292E1C
:1021E0006091540570915505809156059091570561
:1021F000905825E33AEF4EE85CE30E946A266BAF05
:102200007FAB8FAF24969FAF249760915805709154
:10221000590580915A0590915B05905825E33AEF56
:102220004EE85CE30E946A2628966FAF2897609676
:102230007FAF609764968FAF649765969FAF659701
:102240008091600590916105A0916205B091630550
:10225000C757DF4F88839983AA83BB83C958D0406F
:1022600020915C0530915D0540915E0550915F05C0
:10227000C357DF4F288339834A835B83CD58D040CF
:102280005058C955DF4F288339834A835B83C75A27
:10229000D0408091640590916505A0916605B0914C
:1022A0006705CF56DF4F88839983AA83BB83C159C3
:1022B000D040CB56DF4F19821882C559D04080914B
:1022C000B6059091B705CB56DF4FA881B981C559A6
:1022D000D040A817B90710F00C9458210E94210291
:1022E0006B017C01C092AE05D092AF05E092B005C3
:1022F000F092B1058091B2059091B305A091B4051B
:10230000B091B505A7019601281B390B4A0B5B0B51
:10231000CA01B9010E945025C092B205D092B305FE
:10232000E092B405F092B5052FE632E143E85AE3B6
:102330000E946A262FE632E143E85AE30E946A26A9
:102340006BAB7CAB8DAB9EAB6093AA057093AB057A
:102350008093AC059093AD058091A8059091A90557
:102360008130910509F47AC12091680530916905A1
:1023700040916A0550916B052F87388B498B5A8B9A
:1023800020916C0530916D0540916E0550916F055F
:102390002B8F3C8F4D8F5E8F209170053091710592
:1023A00040917205509173052F8F38A349A35AA30A
:1023B000209174053091750540917605509177050F
:1023C0002B8B3C8B4D8B5E8B029711F40C94A31DD1
:1023D0006B8D7C8D8D8D9E8D9058212F302F432DB0
:1023E000522D0E946A266B017C012F8D38A149A1D4
:1023F0005AA16BAD7FA98FAD24969FAD24970E9403
:102400006A269B01AC01C701B6010E94B0236B0193
:102410007C012B893C894D895E8928966FAD289770
:1024200060967FAD609764968FAD649765969FAD1B
:1024300065970E946A269B01AC01C701B6010E9404
:10244000B02320E030E040E05FE30E946A262BA941
:102450003CA94DA95EA90E946A262F853889498921
:102460005A890E94B1236F8B788F898F9A8F2F851D
:10247000388949895A89612F702F832D922D0E94A6
:102480006A266B017C012F8D38A149A15AA128969B
:102490006FAD289760967FAD609764968FAD649717
:1024A00065969FAD65970E946A269B01AC01C701A6
:1024B000B6010E94B1236B017C012B893C894D89B7
:1024C0005E896BAD7FA98FAD24969FAD24970E9446
:1024D0006A269B01AC01C701B6010E94B02320E02F
:1024E00030E040E05FE30E946A262BA93CA94DA999
:1024F0005EA90E946A262B8D3C8D4D8D5E8D0E94BB
:10250000B1236BA37CA38DA39EA32F853889498912
:102510005A896BAD7FA98FAD24969FAD24970E94F9
:102520006A266B017C012B8D3C8D4D8D5E8D28962E
:102530006FAD289760967FAD609764968FAD649776
:1025400065969FAD65970E946A269B01AC01C70105
:10255000B6010E94B0236B017C012B893C894D8917
:102560005E89612F702F832D922D0E946A269B0118
:10257000AC01C701B6010E94B12320E030E040E089
:102580005FE30E946A262BA93CA94DA95EA90E947F
:102590006A262F8D38A149A15AA10E94B1232B018F
:1025A0003C012F85388949895A8928966FAD28972B
:1025B00060967FAD609764968FAD649765969FAD8A
:1025C00065970E946A266B017C012B8D3C8D4D8D99
:1025D0005E8D6BAD7FA98FAD24969FAD24970E9431
:1025E0006A269B01AC01C701B6010E94B1236B01B1
:1025F0007C012F8D38A149A15AA1612F702F832D05
:10260000922D0E946A269B01AC01C701B6010E946F
:10261000B02320E030E040E05FE30E946A262BA96F
:102620003CA94DA95EA90E946A260C94B8208FEFA0
:102630009BEEAFEBBFE369CA8091BA05882321F016
:102640008CE193E00E94AD061092B805C7CB809153
:10265000BA058823C9F388E393E0F4CFC358DF4F6A
:10266000288139814A815B81CD57D040CA01B901A7
:102670000E946A266B017C01E5962CAD3DAD4EAD06
:102680005FADE597CA01B9010E946A269B01AC01C2
:10269000C701B6010E94B1236B017C01E9962CAD04
:1026A0003DAD4EAD5FADE997CA01B9010E946A2602
:1026B0009B01AC01C701B6010E94B1236B017C01F3
:1026C00020E030E0A9010E94AA24882311F40C9490
:1026D000931DC701B6010E94DD264B015C01C7575F
:1026E000DF4F288139814A815B81C958D040CA01B6
:1026F000B9010E946A266B017C01C357DF4F288114
:1027000039814A815B81CD58D040CA01B9010E940C
:102710006A269B01AC01C701B6010E94B1236B017F
:102720007C01CF56DF4F288139814A815B81C159B5
:10273000D040CA01B9010E946A269B01AC01C701C1
:10274000B6010E94B1236B017C0120E030E0A901B9
:102750000E94AA24882311F40C94931D809168058B
:1027600090916905A0916A05B0916B058B8F9C8F44
:10277000AD8FBE8F20916C0530916D0540916E0537
:1027800050916F052B8B3C8B4D8B5E8B4090700571
:10279000509071056090720570907305809174057A
:1027A00090917505A0917605B09177058F87988BEC
:1027B000A98BBA8BA501940160E070E080E89FE3EB
:1027C0000E94AF24ED966CAF7DAF8EAF9FAFED97BB
:1027D000C701B6010E94DD269B01AC0160E070E0FC
:1027E00080E89FE30E94AF246B017C01AC019B0158
:1027F000C757DF4F688179818A819B81C958D04052
:102800000E946A266BA77CA78DA79EA7A7019601A9
:10281000C955DF4F688179818A819B81C75AD04031
:102820000E946A266F8B788F898F9A8FA7019601F5
:10283000CF56DF4F688179818A819B81C159D04011
:102840000E946A266BA37CA38DA39EA32B8D3C8D37
:102850004D8D5E8DCA01B9010E94B1236FA378A787
:1028600089A79AA79B01AC016BA57CA58DA59EA508
:102870000E946A26E1966CAF7DAF8EAF9FAFE19765
:102880002FA138A549A55AA56F89788D898D9A8D74
:102890000E946A26CF57DF4F688379838A839B83A0
:1028A000C158D0402FA138A549A55AA56BA17CA13C
:1028B0008DA19EA10E946A264B015C012B893C8957
:1028C0004D895E89CA01B9010E94B123A9966CAFF6
:1028D0007DAF8EAF9FAFA9979B01AC016BA57CA587
:1028E0008DA59EA50E946A26CB57DF4F688379830A
:1028F0008A839B83C558D040A3019201C301B201D2
:102900000E94B123AD966CAF7DAF8EAF9FAFAD97F8
:102910002F85388949895A89CA01B9010E94B12392
:10292000C556DF4F688379838A839B83CB59D04018
:102930002B8D3C8D4D8D5E8DCA01B9010E946A269A
:102940006D966CAF7DAF8EAF9FAF6D972B893C8935
:102950004D895E896B8D7C8D8D8D9E8D0E946A2642
:10296000A5966CAF7DAF8EAF9FAFA597A3019201E7
:102970006B8D7C8D8D8D9E8D0E946A26C156DF4F9A
:10298000688379838A839B83CF59D0402B893C8984
:102990004D895E89CA01B9010E946A262F966CAFE3
:1029A0007DAF8EAF9FAF2F972F85388949895A8980
:1029B0006B897C898D899E890E946A2669966CAF95
:1029C0007DAF8EAF9FAF6997A3019201C301B201A2
:1029D0000E946A266FA778AB89AB9AAB2F8538899E
:1029E00049895A89CA01B9010E946A26A1966CAF29
:1029F0007DAF8EAF9FAFA1976D962CAD3DAD4EAD27
:102A00005FAD6D976BA57CA58DA59EA50E946A26DE
:102A10006B017C01CF57DF4F288139814A815B816F
:102A2000C158D0406F85788989899A890E946A2621
:102A30009B01AC01C701B6010E94B0236B017C0170
:102A4000A5019401C301B2010E946A269B01AC0159
:102A5000C701B6010E94B1236B017C012F962CADFA
:102A60003DAD4EAD5FAD2F976BA57CA58DA59EA509
:102A70000E946A269B01AC01C701B6010E94B123E6
:102A80006B017C01A9962CAD3DAD4EAD5FADA99714
:102A90006F89788D898D9A8D0E946A26A301920193
:102AA0000E946A269B01AC01C701B6010E94B123B6
:102AB0006B017C01A9962CAD3DAD4EAD5FADA997E4
:102AC0006BA17CA18DA19EA10E946A262F853889C9
:102AD00049895A890E946A269B01AC01C701B60147
:102AE0000E94B1236B017C012FA538A949A95AA9DD
:102AF0006BA57CA58DA59EA50E946A269B01AC01B5
:102B0000C701B6010E94B0236B017C01A1962CADD8
:102B10003DAD4EAD5FADA1976BA57CA58DA59EA5E6
:102B20000E946A269B01AC01C701B6010E94B02336
:102B30006B017C01E1962CAD3DAD4EAD5FADE197F3
:102B40006F85788989899A890E946A266F8F78A310
:102B500089A39AA36D962CAD3DAD4EAD5FAD6D973B
:102B60006F89788D898D9A8D0E946A269B01AC01B0
:102B70006F8D78A189A19AA10E94B1236F8F78A34C
:102B800089A39AA3A50194016B897C898D899E896B
:102B90000E946A269B01AC016F8D78A189A19AA140
:102BA0000E94B0234B015C01CB57DF4F2881398154
:102BB0004A815B81C558D040C301B2010E946A2698
:102BC0009B01AC01C501B4010E94B1234B015C0122
:102BD0002F962CAD3DAD4EAD5FAD2F976F89788DA3
:102BE000898D9A8D0E946A269B01AC01C501B401B2
:102BF0000E94B0234B015C012FA538A949A95AA90D
:102C00006F89788D898D9A8D0E946A269B01AC010F
:102C1000C501B4010E94B1234B015C01AD962CADFE
:102C20003DAD4EAD5FADAD976BA17CA18DA19EA1D9
:102C30000E946A262F85388949895A890E946A2606
:102C40009B01AC01C501B4010E94B1234B015C01A1
:102C5000A1962CAD3DAD4EAD5FADA1976F89788D3E
:102C6000898D9A8D0E946A269B01AC01C501B40131
:102C70000E94B0234B015C01A7019601C701B60178
:102C80000E946A266B017C01A5019401C501B40173
:102C90000E946A269B01AC01C701B6010E94B123C4
:102CA0000E94DD266F8F78A389A39AA3E1966CAD6D
:102CB0007DAD8EAD9FADE1979058A30192010E942A
:102CC0006A266B017C01CF57DF4F288139814A8109
:102CD0005B81C158D0406B897C898D899E890E9417
:102CE0006A269B01AC01C701B6010E94B1236B01AA
:102CF0007C016D962CAD3DAD4EAD5FAD6D976BA17A
:102D00007CA18DA19EA10E946A269B01AC01C701F6
:102D1000B6010E94B1236B017C01CB57DF4F2881A4
:102D200039814A815B81C558D0406F85788989890E
:102D30009A890E946A269B01AC01C701B6010E94D4
:102D4000B1236B017C012F962CAD3DAD4EAD5FAD37
:102D50002F976BA17CA18DA19EA10E946A269B0149
:102D6000AC01C701B6010E94B0236B017C01AD9696
:102D70002CAD3DAD4EAD5FADAD976F89788D898D32
:102D80009A8D0E946A262F85388949895A890E941E
:102D90006A269B01AC01C701B6010E94B1236B01F9
:102DA0007C012FA538A949A95AA96BA17CA18DA1A5
:102DB0009EA10E946A269B01AC01C701B6010E9438
:102DC000B0236B017C01A1962CAD3DAD4EAD5FAD46
:102DD000A1976BA17CA18DA19EA10E946A269B0157
:102DE000AC01C701B6010E94B1236B017C01AC01AB
:102DF0009B010E94B123CF57DF4F688379838A8379
:102E00009B83C158D04069962CAD3DAD4EAD5FADB2
:102E10006997CA01B9010E94B1234B015C012FA13E
:102E200038A549A55AA5C301B2010E946A269B0193
:102E3000AC01C501B4010E94B0234B015C01ED96C9
:102E40002CAD3DAD4EAD5FADED97C956DF4F6881FE
:102E500079818A819B81C759D0400E946A269B0153
:102E6000AC01C501B4010E94B0236D966CAF7DAF7B
:102E70008EAF9FAF6D97AD962CAD3DAD4EAD5FADB6
:102E8000AD976F85788989899A890E946A264B0156
:102E90005C01A5962CAD3DAD4EAD5FADA597CA01C9
:102EA000B9010E94B1239B01AC01C501B4010E948C
:102EB000B1234B015C01ED962CAD3DAD4EAD5FAD48
:102EC000ED97E5966CAD7DAD8EAD9FADE5970E941B
:102ED0006A269B01AC01C501B4010E94B023E196B2
:102EE0006CAF7DAF8EAF9FAFE197A7019601C30195
:102EF000B2010E946A26CB57DF4F688379838A83A9
:102F00009B83C558D0402FA538A949A95AA960E08C
:102F100070E080E09FE30E94B023A1962CAD3DAD10
:102F20004EAD5FADA1970E94B0232F8D38A149A16E
:102F30005AA10E946A264B015C01C156DF4F2881CD
:102F400039814A815B81CF59D04069966CAD7DADA6
:102F50008EAD9FAD69970E94B023A70196010E9494
:102F60006A269B01AC01C501B4010E94B1232BA5C7
:102F70003CA54DA55EA50E94B0236BA77CA78DA79D
:102F80009EA72F8D38A149A15AA15058A1962CAFC8
:102F90003DAF4EAF5FAFA197A70196016B897C89CA
:102FA0008D899E890E946A26CD55DF4F688379837B
:102FB0008A839B83C35AD040A30192016B897C8989
:102FC0008D899E890E946A264B015C012F85388974
:102FD00049895A896B8D7C8D8D8D9E8D0E946A26C4
:102FE0009B01AC01C501B4010E94B0232F8D38A113
:102FF00049A15AA10E946A264B015C012F8538899C
:1030000049895A89C301B2010E946A26A5962CAD4E
:103010003DAD4EAD5FADA5970E94B123A7019601CE
:103020000E946A269B01AC01C501B4010E94B12334
:103030002F89388D498D5A8D0E94B0236F8B788FE0
:10304000898F9A8F2F8D38A149A15AA1C301B2014E
:103050000E946A26A5966CAF7DAF8EAF9FAFA597F5
:103060002F962CAD3DAD4EAD5FAD2F9760E070E07B
:1030700080E09FE30E94B0232FA538A949A95AA94F
:103080000E94B023A70196010E946A264B015C01B1
:1030900069962CAD3DAD4EAD5FAD6997C156DF4F22
:1030A000688179818A819B81CF59D0400E94B12368
:1030B0002F8D38A149A15AA10E946A269B01AC011B
:1030C000C501B4010E94B1232BA13CA14DA15EA179
:1030D0000E94B0236BA37CA38DA39EA3AD966CAD81
:1030E0007DAD8EAD9FADAD9790586D962CAD3DAD3D
:1030F0004EAD5FAD6D970E946A264B015C01E19673
:103100002CAD3DAD4EAD5FADE197A9966CAD7DADFB
:103110008EAD9FADA9970E946A269B01AC01C501A7
:10312000B4010E94B1234B015C012BA53CA54DA528
:103130005EA5CB57DF4F688179818A819B81C55815
:10314000D0400E946A269B01AC01C501B4010E94D7
:10315000B0234B015C01A1962CAD3DAD4EAD5FADF2
:10316000A1976F85788989899A890E946A26CD55A9
:10317000DF4F288139814A815B81C35AD0400E9448
:10318000B1232F89388D498D5A8D0E946A269B0163
:10319000AC01C501B4010E94B1234B015C012BA11C
:1031A0003CA14DA15EA1A5966CAD7DAD8EAD9FAD50
:1031B000A5970E946A269B01AC01C501B4010E943B
:1031C000B12369966CAF7DAF8EAF9FAF69972F9695
:1031D0002CAD3DAD4EAD5FAD2F97CA01B9010E9438
:1031E000B1239B01AC0160E070E080E89FE30E94A6
:1031F000B0234B015C012FA538A949A95AA9CA01DE
:10320000B9010E94B1239B01AC01C501B4010E9428
:10321000B0234B015C01ED962CAD3DAD4EAD5FADE5
:10322000ED97E9966CAD7DAD8EAD9FADE9970E94AF
:103230006A269B01AC01C501B4010E94B0232F9600
:103240006CAF7DAF8EAF9FAF2F97A70196016F85B3
:10325000788989899A890E946A264B015C01A701B5
:1032600096016B8D7C8D8D8D9E8D0E946A26ED96CC
:103270006CAF7DAF8EAF9FAFED976D962CAD3DAD32
:103280004EAD5FAD6D97C556DF4F688179818A81FC
:103290009B81CB59D0400E946A266B017C01E1964C
:1032A0002CAD3DAD4EAD5FADE1976FA178A589A581
:1032B0009AA50E946A269B01AC01C701B6010E9433
:1032C000B1236B017C0120E030E040E850E46B89E1
:1032D0007C898D899E890E946A262F962CAD3DADF2
:1032E0004EAD5FAD2F970E946A269B01AC01C701CE
:1032F000B6010E94B0236B017C01A50194016BA56E
:103300007CA58DA59EA50E946A269B01AC01C701E4
:10331000B6010E94B1236B017C01ED962CAD3DAD51
:103320004EAD5FADED97A5966CAD7DAD8EAD9FAD0D
:10333000A5970E94B1232F89388D498D5A8D0E94FF
:103340006A269B01AC01C701B6010E94B1236B0143
:103350007C012F8D38A149A15AA16F85788989896F
:103360009A890E946A266FA778AB89AB9AABCF5730
:10337000DF4F288139814A815B81C158D0406B89F8
:103380007C898D899E890E946A269B01AC016FA56C
:1033900078A989A99AA90E94B0232BA13CA14DA18B
:1033A0005EA10E946A269B01AC01C701B6010E9482
:1033B000B1236FA778AB89AB9AAB2F8D38A149A108
:1033C0005AA1CA01B9010E94B1236B017C01F7FA2D
:1033D000F094F7F8F0942F8D38A149A15AA16B8988
:1033E0007C898D899E890E946A26A5966CAF7DAFE7
:1033F0008EAF9FAFA5976FA178A589A59AA5905884
:103400006D962CAD3DAD4EAD5FAD6D970E946A26B9
:103410006FA378A789A79AA7E1962CAD3DAD4EADD5
:103420005FADE197C556DF4F688179818A819B81C5
:10343000CB59D0400E946A269B01AC016FA178A5B0
:1034400089A59AA50E94B1236FA378A789A79AA7F7
:1034500020E030E040E850E4C301B2010E946A2657
:103460002F962CAD3DAD4EAD5FAD2F970E946A26D5
:103470009B01AC016FA178A589A59AA50E94B023F4
:103480006FA378A789A79AA7A7019601C301B201E4
:103490000E946A26ED962CAD3DAD4EAD5FADED9729
:1034A0000E94B0232BA53CA54DA55EA50E946A26CF
:1034B0009B01AC016FA178A589A59AA50E94B123B3
:1034C0006FA378A789A79AA7A5962CAD3DAD4EAD61
:1034D0005FADA597C501B4010E94B1232F89388D36
:1034E000498D5A8D0E946A269B01AC016FA178A577
:1034F00089A59AA50E94B1234B015C012F8D38A1AB
:1035000049A15AA16B8D7C8D8D8D9E8D0E946A265E
:103510006F8F78A389A39AA3CF57DF4F2881398172
:103520004A815B81C158D040C301B2010E946A2622
:103530009B01AC016F8D78A189A19AA10E94B02353
:103540002BA13CA14DA15EA10E946A269B01AC016A
:10355000C501B4010E94B1236FA378A789A79AA7D8
:103560006D962CAD3DAD4EAD5FAD6D97A9966CAD32
:103570007DAD8EAD9FADA9970E946A264B015C017F
:10358000E1962CAD3DAD4EAD5FADE197AD966CAD26
:103590007DAD8EAD9FADAD970E946A269B01AC01BB
:1035A000C501B4010E94B1234B015C01A701960142
:1035B0006F85788989899A890E946A26CD55DF4F5F
:1035C000288139814A815B81C35AD0400E94B1234E
:1035D0002BA53CA54DA55EA50E946A269B01AC01CA
:1035E000C501B4010E94B1236B017C01A1962CADF1
:1035F0003DAD4EAD5FADA1976B8D7C8D8D8D9E8D5C
:103600000E946A26CB57DF4F288139814A815B812E
:10361000C558D0400E94B1232F89388D498D5A8DCD
:103620000E946A269B01AC01C701B6010E94B1232A
:103630006B017C01A5962CAD3DAD4EAD5FADA59760
:103640006BA17CA18DA19EA10E946A269B01AC0169
:10365000C701B6010E94B1236F8B788F898F9A8F33
:1036600069962CAD3DAD4EAD5FAD6997CA01B9010C
:103670000E946A266B017C012FA538A949A95AA985
:10368000CA01B9010E946A269B01AC01C701B601BB
:103690000E94B1236B017C012FA138A549A55AA531
:1036A000CA01B9010E946A269B01AC01C701B6019B
:1036B0000E94B1236B017C012F89388D498D5A8D71
:1036C000CA01B9010E946A269B01AC01C701B6017B
:1036D0000E94B1230E94DD269B01AC0160E070E0F6
:1036E00080E89FE30E94AF246F8F78A389A39AA3F9
:1036F0008090980590909905A0909A05B0909B05B0
:103700006B897C898D899E899058212F302F432D7C
:10371000522D0E946A266B017C01A30192016BADC0
:103720007FA98FAD24969FAD24970E946A269B01A6
:10373000AC01C701B6010E94B0236B017C012F854B
:10374000388949895A8928966FAD289760967FAD48
:10375000609764968FAD649765969FAD65970E945C
:103760006A269B01AC01C701B6010E94B02320E08C
:1037700030E040E05FE30E946A266BA37CA38DA348
:103780009EA32B8D3C8D4D8D5E8D612F702F832DD3
:10379000922D0E946A266B017C01A301920128965A
:1037A0006FAD289760967FAD609764968FAD6497F4
:1037B00065969FAD65970E946A269B01AC01C70183
:1037C000B6010E94B1236B017C012F85388949899C
:1037D0005A896BAD7FA98FAD24969FAD24970E9427
:1037E0006A269B01AC01C701B6010E94B02320E00C
:1037F00030E040E05FE30E946A266BA77CA78DA7BC
:103800009EA72B8D3C8D4D8D5E8D6BAD7FA98FADB1
:1038100024969FAD24970E946A266B017C012B8918
:103820003C894D895E8928966FAD289760967FAD5B
:10383000609764968FAD649765969FAD65970E947B
:103840006A269B01AC01C701B6010E94B0236B013F
:103850007C012F85388949895A89612F702F832DE2
:10386000922D0E946A269B01AC01C701B6010E94FD
:10387000B12320E030E040E05FE30E946A262F960B
:103880006CAF7DAF8EAF9FAF2F972B8D3C8D4D8D45
:103890005E8D28966FAD289760967FAD6097649691
:1038A0008FAD649765969FAD65970E946A266B0100
:1038B0007C012B893C894D895E896BAD7FA98FADD9
:1038C00024969FAD24970E946A269B01AC01C701F4
:1038D000B6010E94B1236B017C01A3019201612F0B
:1038E000702F832D922D0E946A269B01AC01C70187
:1038F000B6010E94B02320E030E040E05FE30E9488
:103900006A266B017C012F8D38A149A15AA16996C5
:103910006CAD7DAD8EAD9FAD69970E946A26A50105
:1039200094010E946A269B01AC016BA17CA18DA130
:103930009EA10E94B0232BA93CA94DA95EA90E947B
:103940006A262B8D3C8D4D8D5E8D0E94B1236B8F31
:103950007C8F8D8F9E8F2F8D38A149A15AA16FA585
:1039600078A989A99AA90E946A26A50194010E94B2
:103970006A269B01AC016BA57CA58DA59EA50E9426
:10398000B0232BA93CA94DA95EA90E946A262B89C8
:103990003C894D895E890E94B1236B8B7C8B8D8B1A
:1039A0009E8B2F8D38A149A15AA16FA178A589A519
:1039B0009AA50E946A26A50194010E946A269B018D
:1039C000AC012F966CAD7DAD8EAD9FAD2F970E9453
:1039D000B0232BA93CA94DA95EA90E946A26A30188
:1039E00092010E94B1232B013C012F8D38A149A1E6
:1039F0005AA16F89788D898D9A8D0E946A26A501BA
:103A000094010E946A269B01AC01C701B6010E9485
:103A1000B0232BA93CA94DA95EA90E946A262F8537
:103A2000388949895A890E94B1234B015C012B8D49
:103A30003C8D4D8D5E8DCA01B9010E946A266B01D5
:103A40007C012B893C894D895E89CA01B9010E949C
:103A50006A269B01AC01C701B6010E94B1236B012C
:103A60007C01A3019201C301B2010E946A269B015D
:103A7000AC01C701B6010E94B1236B017C01A50115
:103A80009401C501B4010E946A269B01AC01C701E3
:103A9000B6010E94B1230E94DD269B01AC0160E0CB
:103AA00070E080E89FE30E94AF246B017C01AC01D1
:103AB0009B016B8D7C8D8D8D9E8D0E946A266093FF
:103AC00068057093690580936A0590936B05A7015B
:103AD00096016B897C898D899E890E946A266093F4
:103AE0006C0570936D0580936E0590936F05A7012B
:103AF0009601C301B2010E946A266093700570931B
:103B000071058093720590937305A7019601C50115
:103B1000B4010E946A2660937405709375058093C2
:103B2000760590937705CB56DF4F28813981C559AB
:103B3000D0402F5F3F4FCB56DF4F39832883C55985
:103B4000D0400C945F11C358DF4F288139814A81DE
:103B50005B81CD57D040CA01B9010E946A266B0132
:103B60007C01E5962CAD3DAD4EAD5FADE597CA014C
:103B7000B9010E946A269B01AC01C701B6010E94EF
:103B8000B1236B017C01E9962CAD3DAD4EAD5FAD2F
:103B9000E997CA01B9010E946A269B01AC01C701DD
:103BA000B6010E94B1236B017C0120E030E0A90145
:103BB0000E945D2618160CF058C3C701B6010E947A
:103BC000DD269B01AC0160E070E080E89FE30E948D
:103BD000AF246B017C01AC019B01C956DF4F6881AA
:103BE00079818A819B81C759D0400E946A266BA740
:103BF0007CA78DA79EA7A7019601E5966CAD7DAD2C
:103C00008EAD9FADE5970E946A262B013C01A7016E
:103C10009601E9966CAD7DAD8EAD9FADE9970E94A2
:103C20006A264B015C012B893C894D895E896B8D2D
:103C30007C8D8D8D9E8D0E946A266B017C012F8D5F
:103C400038A149A15AA16F85788989899A890E94EA
:103C50006A269B01AC01C701B6010E94B0236FA781
:103C600078AB89AB9AAB2F85388949895A896B8D96
:103C70007C8D8D8D9E8D0E946A266B017C012F8D1F
:103C800038A149A15AA16B897C898D899E890E949E
:103C90006A269B01AC01C701B6010E94B1236FA344
:103CA00078A789A79AA72F85388949895A89CA018F
:103CB000B9010E946A2620E030E040E05FE30E9404
:103CC000B0236B017C012B893C894D895E89CA0137
:103CD000B9010E946A269B01AC01C701B6010E948E
:103CE000B1236B017C01AC019B01C301B2010E94B5
:103CF0006A266F8B788F898F9A8F2FA138A549A557
:103D00005AA5C501B4010E946A269B01AC016F89C6
:103D1000788D898D9A8D0E94B0236F8B788F898FD3
:103D20009A8F2FA538A949A95AA9C501B4010E94A3
:103D30006A264B015C01A70196016BA57CA58DA5A8
:103D40009EA50E946A269B01AC01C501B4010E9498
:103D5000B0236BA37CA38DA39EA32FA138A549A557
:103D60005AA56BA57CA58DA59EA50E946A266B0110
:103D70007C012FA538A949A95AA9C301B2010E9403
:103D80006A269B01AC01C701B6010E94B0236BA754
:103D90007CA78DA79EA7C090A405D090A505E09014
:103DA000A605F090A70520E030E0A901C701B60103
:103DB0000E945D2618160CF03AC2A70196016F8981
:103DC000788D898D9A8D0E946A262BA93CA94DA9D0
:103DD0005EA90E946A262091A6033091A703409114
:103DE000A8035091A9030E94B1232B013C014092EA
:103DF000A6035092A7036092A8037092A903A7019B
:103E000096016BA17CA18DA19EA10E946A262BA97F
:103E10003CA94DA95EA90E946A262091A203309177
:103E2000A3034091A4035091A5030E94B1234B0129
:103E30005C018092A2039092A303A092A403B0928B
:103E4000A503A70196016BA57CA58DA59EA50E9443
:103E50006A262BA93CA94DA95EA90E946A26209139
:103E60009E0330919F034091A0035091A1030E94B3
:103E7000B1236B017C01C0929E03D0929F03E0921C
:103E8000A003F092A103A3019201612F702F832D53
:103E9000922D0E94B1233B018FA7492EA5019401C9
:103EA0006BAD7FA98FAD24969FAD24970E94B1235F
:103EB0004B015C01A701960128966FAD289760968B
:103EC0007FAD609764968FAD649765969FAD65975B
:103ED0000E94B1236FA32C967FAF2C97A6968FAF2D
:103EE000A697592EC090A005D090A105E090A205FC
:103EF000F090A305A70196016F89788D898D9A8D21
:103F00000E946A2693014FA5542D0E94B1236F8B06
:103F10007FA7AA968FAFAA9766969FAF6697A701CD
:103F200096016BA17CA18DA19EA10E946A2694019D
:103F3000A5010E94B1236BA36E967FAF6E97482EAA
:103F40006A969FAF6A97A70196016BA57CA58DA580
:103F50009EA50E946A262FA12C963FAD2C97A6966F
:103F60004FADA697552D0E94B123562E672E782E61
:103F70009BA720E030E040E05FE36BA97CA98DA91E
:103F80009EA90E946A264B015C018092AA0590922C
:103F9000AB05A092AC05B092AD052F893FA5AA96BE
:103FA0004FADAA9766965FAD66970E946A266BAB87
:103FB0007CAB8DAB9EAB2BA16E963FAD6E97442D27
:103FC0006A965FAD6A97C501B4010E946A266B01CB
:103FD0007C01252D362D472D5BA5C501B4010E941E
:103FE0006A264B015C016B8D7C8D8D8D9E8D90586A
:103FF0002BA93CA94DA95EA90E946A262B013C0170
:104000002F8D38A149A15AA1C701B6010E946A2685
:104010009B01AC01C301B2010E94B0232B013C0102
:104020002B893C894D895E89C501B4010E946A26AD
:104030009B01AC01C301B2010E94B0232F853889D6
:1040400049895A890E94B1236F8B788F898F9A8F03
:104050002F85388949895A896BA97CA98DA99EA980
:104060000E946A262B013C012F8D38A149A15AA13B
:10407000C501B4010E946A269B01AC01C301B201D3
:104080000E94B1232B013C012B893C894D895E891B
:10409000C701B6010E946A269B01AC01C301B201AF
:1040A0000E94B0232B8D3C8D4D8D5E8D0E94B123DF
:1040B0006BA37CA38DA39EA32F85388949895A8938
:1040C000C701B6010E946A262B013C012B8D3C8D55
:1040D0004D8D5E8DC501B4010E946A269B01AC0125
:1040E000C301B2010E94B0232B013C012B893C8902
:1040F0004D895E896BA97CA98DA99EA90E946A261B
:104100009B01AC01C301B2010E94B1232F8D38A1E4
:1041100049A15AA10E94B1232B013C012F85388966
:1041200049895A89C501B4010E946A264B015C0184
:104130002B8D3C8D4D8D5E8DC701B6010E946A2688
:104140009B01AC01C501B4010E94B1236B017C014C
:104150002F8D38A149A15AA16BA97CA98DA99EA92F
:104160000E946A269B01AC01C701B6010E94B023E0
:104170002B893C894D895E890E94B1234B015C01EA
:104180002F89388D498D5A8DCA01B9010E946A263E
:104190006B017C012BA13CA14DA15EA1CA01B9011B
:1041A0000E946A269B01AC01C701B6010E94B1239F
:1041B0006B017C01A3019201C301B2010E946A2636
:1041C0009B01AC01C701B6010E94B1236B017C01C8
:1041D000A5019401C501B4010E946A269B01AC01AE
:1041E000C701B6010E94B1230E94DD269B01AC01EC
:1041F00060E070E080E89FE30E94AF246B017C01E7
:10420000AC019B016F89788D898D9A8D0E946A26F9
:10421000609368057093690580936A0590936B05B8
:10422000A70196016BA17CA18DA19EA156CC2896D9
:104230003FAD28973FA360964FAD60972C964FAF48
:104240002C9764965FAD6497A6965FAFA697659628
:104250005FAC65978BAC9FA8AFAC2496BFAC24979E
:10426000612E702E3FA6422C3DCE28965FAC28973B
:1042700060966FAC609764967FAC649765968FADDF
:1042800065978BA79BAD9BA3AFA96E96AFAF6E97BB
:104290004FAC2496BFAD24976A96BFAF6A971F8B29
:1042A0000FA7AA963FAEAA9766962FAE669761CEE5
:1042B0008091B905811161C09E012F5F3F4F42E09F
:1042C00061E48091CE040E94160869817A81762784
:1042D000672776277093270560932605072E000C25
:1042E000880B990B0E9452252CE53FEE46EA53E4D9
:1042F0000E94AF2420E030E048EA51E40E94B1235C
:10430000609328057093290580932A0590932B05C7
:1043100020916005309161054091620550916305DF
:1043200060915C0570915D0580915E0590915F05DF
:104330000E944B2420E030E044E353E40E946A26CC
:104340002BED3FE049E450E40E94AF246B017C0177
:1043500020E030E040E252E40E945D2618160CF0A6
:10436000CCC1A7019601C701B6010E94B1230E94EA
:10437000BB060E947D030C94FA0E80907405909009
:104380007505A0907605B0907705809170059091A5
:104390007105A0917205B09173058F87988BA98BD9
:1043A000BA8B40906C0550906D0560906E057090D2
:1043B0006F05209168053091690540916A0550911B
:1043C0006B052B8B3C8B4D8B5E8BCA01B9010E9418
:1043D0006A266FAB78AF89AF9AAFA3019201C30190
:1043E000B2010E946A2623966CAF7DAF8EAF9FAF5D
:1043F00023972F85388949895A89CA01B9010E94B2
:104400006A2627966CAF7DAF8EAF9FAF2797A50129
:104410009401C501B4010E946A262B966CAF7DAF52
:104420008EAF9FAF2B972B893C894D895E89C30145
:10443000B2010E946A266B017C012F853889498967
:104440005A89C501B4010E946A269B01AC01C701CB
:10445000B6010E94B1239B01AC010E94B1236B8F76
:104460007C8F8D8F9E8FA3019201C501B4010E94A4
:104470006A266B017C012B893C894D895E896F8599
:10448000788989899A890E946A269B01AC01C701B3
:10449000B6010E94B0239B01AC010E94B1236BAB1B
:1044A0007CAB8DAB9EAB23962CAD3DAD4EAD5FADE1
:1044B00023976FA978AD89AD9AAD0E94B023279656
:1044C0002CAD3DAD4EAD5FAD27970E94B0232B962E
:1044D0002CAD3DAD4EAD5FAD2B970E94B1236BAFC0
:1044E0007CAF8DAF9EAF9B01AC016B8D7C8D8D8DB4
:1044F0009E8D0E944B246B017C016BA97CA98DA928
:104500009EA90E941D2463966CAF7DAF8EAF9FAFB6
:10451000639723962CAD3DAD4EAD5FAD23976FA94C
:1045200078AD89AD9AAD0E94B12327962CAD3DADF3
:104530004EAD5FAD27970E94B0232B962CAD3DADBD
:104540004EAD5FAD2B970E94B0236FAB78AF89AFB4
:104550009AAFA30192016F85788989899A890E940F
:104560006A262B013C012B893C894D895E89C50156
:10457000B4010E946A269B01AC01C301B2010E94F2
:10458000B1239B01AC010E94B1232FA938AD49ADE5
:104590005AAD0E944B244B015C0120EE3EE245E601
:1045A00052E4C701B6010E946A26609378057093B1
:1045B000790580937A0590937B0563966CAD7DAD0C
:1045C0008EAD9FAD6397905820EE3EE245E652E4F3
:1045D0000E946A2660937C0570937D0580937E051A
:1045E00090937F0520EE3EE245E652E4C501B4011A
:1045F0000E946A26209122053091230540912405CE
:10460000509125050E94B1236B017C0120E030E030
:1046100044E353E40E945D2687FD11C020E030E0B2
:1046200044EB53E4C701B6010E94B02360938005B8
:1046300070938105809382059093830512C020E0DA
:1046400030E044E353ECC701B6010E94AA2487FD81
:104650004BC0C0928005D0928105E0928205F09215
:1046600083052B8D3C8D4D8D5E8D60914405709141
:10467000450580914605909147050E94B1236093BE
:1046800084057093850580938605909387052BA9F3
:104690003CA94DA95EA9609148057091490580919A
:1046A0004A0590914B050E94B12360938805709351
:1046B000890580938A0590938B052BAD3CAD4DAD5C
:1046C0005EAD60914C0570914D0580914E059091C5
:1046D0004F050E94B02360938C0570938D058093E5
:1046E0008E0590938F0514CE20E030E044EB53E428
:1046F000C701B6010E94B12399CF2DEC3CEC4CECE4
:104700005EE3C701B6010E946A2631CEA1E21A2EED
:10471000AA1BBB1BFD010DC0AA1FBB1FEE1FFF1F65
:10472000A217B307E407F50720F0A21BB30BE40BB5
:10473000F50B661F771F881F991F1A9469F76095FC
:104740007095809590959B01AC01BD01CF010895B6
:10475000EE0FFF1F881F8BBF0790F691E02D199475
:104760005058BB27AA270E94C8230C9423260E94D6
:10477000152638F00E941C2620F039F49F3F19F4CA
:1047800026F40C94D7250EF4E095E7FB0C94D12584
:10479000E92F0E94342658F3BA176207730784077B
:1047A000950720F079F4A6F50C9456260EF4E095C2
:1047B0000B2EBA2FA02D0B01B90190010C01CA01DB
:1047C000A0011124FF27591B99F0593F50F4503E86
:1047D00068F11A16F040A22F232F342F4427585F78
:1047E000F3CF469537952795A795F0405395C9F790
:1047F0007EF41F16BA0B620B730B840BBAF0915048
:10480000A1F0FF0FBB1F661F771F881FC2F70EC0E6
:10481000BA0F621F731F841F48F4879577956795B9
:10482000B795F7959E3F08F0B0CF9395880F08F0A5
:104830009927EE0F9795879508959F939F77EEE3BD
:1048400089379E0728F4E4EEF0E00E9401260CC0B0
:104850000E948D259058A2EA2AED3FE049EC5FE3E3
:104860000E94C8230E9423260F9007FC90580895A9
:104870000E94152660F080E891E009F49EEF0E9406
:104880001C2628F040E851E071F45EEF0CC00C9457
:10489000D7250C945626E92FE0780E94342640F361
:1048A000092E052AB1F3261737074807590738F0AC
:1048B0000E2E07F8E02569F0E025E0640AC0EF63FA
:1048C00007F8009407FADB01B9019D01DC01CA0178
:1048D000AD01EF930E94C6240E9423260E947B24F0
:1048E0005F91552339F02BED3FE049E450FD49EC51
:1048F0000C94B1230895DF93DD27B92FBF7740E8EB
:104900005FE31616170648075B0718F4D92F0E94B5
:1049100062269F938F937F936F930E941D27E8EFEA
:10492000F0E00E94DA250E9423262F913F914F91BB
:104930005F910E947D26DD2351F09058A2EA2AED76
:104940003FE049EC5FE3D0785D270E94C823DF9108
:104950000C9423260E94AD2508F481E008950E945E
:10496000C3240C9423260E941C2658F00E9415266E
:1049700040F029F45F3F29F00C94D12551110C949B
:1049800057260C94D7250E94342668F39923B1F357
:10499000552391F3951B550BBB27AA276217730765
:1049A000840738F09F5F5F4F220F331F441FAA1FF9
:1049B000A9F335D00E2E3AF0E0E832D091505040B5
:1049C000E695001CCAF72BD0FE2F29D0660F771F63
:1049D000881FBB1F261737074807AB07B0E809F049
:1049E000BB0B802DBF01FF2793585F4F3AF09E3FCE
:1049F000510578F00C94D1250C9457265F3FE4F3D1
:104A0000983ED4F3869577956795B795F7959F5F10
:104A1000C9F7880F911D9695879597F90895E1E05C
:104A2000660F771F881FBB1F621773078407BA07BB
:104A300020F0621B730B840BBA0BEE1F88F7E09516
:104A400008950E943C2688F09F5798F0B92F992727
:104A5000B751B0F0E1F0660F771F881F991F1AF069
:104A6000BA95C9F714C0B13091F00E945626B1E052
:104A700008950C945626672F782F8827B85F39F051
:104A8000B93FCCF3869577956795B395D9F73EF402
:104A900090958095709561957F4F8F4F9F4F0895AA
:104AA000E89409C097FB3EF49095809570956195C8
:104AB0007F4F8F4F9F4F9923A9F0F92F96E9BB277E
:104AC0009395F695879577956795B795F111F8CFFA
:104AD000FAF4BB0F11F460FF1BC06F5F7F4F8F4F65
:104AE0009F4F16C0882311F096E911C0772321F05B
:104AF0009EE8872F762F05C0662371F096E8862FF3
:104B000070E060E02AF09A95660F771F881FDAF749
:104B1000880F9695879597F90895DF93CF931F9304
:104B20000F938B01EC01E5E2F1E00E94DA250E948F
:104B300023269801AE018B01EC0160E070E080E873
:104B40009FE30E94B0230E94DD269801AE010F91E1
:104B50001F91CF91DF910C947D26990F0008550F7E
:104B6000AA0BE0E8FEEF16161706E807F907C0F0F3
:104B700012161306E407F50798F0621B730B840BFB
:104B8000950B39F40A2661F0232B242B252B21F4D5
:104B900008950A2609F4A140A6958FEF811D811D75
:104BA000089597F99F6780E870E060E008959FEFAF
:104BB00080EC0895DF93CF931F930F93FF92EF92B2
:104BC000DF927B018C01689406C0DA2EEF010E940F
:104BD0007D26FE01E894A591259135914591559149
:104BE000A6F3EF010E94C823FE019701A801DA9401
:104BF00069F7DF90EF90FF900F911F91CF91DF91B8
:104C000008959F938F937F936F93FF93EF939B01EF
:104C1000AC010E946A26EF91FF910E94DA252F9144
:104C20003F914F915F910C946A2600240A941616C6
:104C3000170618060906089500240A94121613068A
:104C4000140605060895092E0394000C11F4882318
:104C500052F0BB0F40F4BF2B11F460FF04C06F5F34
:104C60007F4F8F4F9F4F089557FD9058440F551F0A
:104C700059F05F3F71F04795880F97FB991F61F0DE
:104C80009F3F79F087950895121613061406551F55
:104C9000F2CF4695F1DF08C0161617061806991FC1
:104CA000F1CF86957105610508940895E894BB27B6
:104CB00066277727CB0197F908950E94AD2508F460
:104CC0008FEF08959B01AC0160E070E080E89FE306
:104CD0000C94AF240E947D260C9423260E94152656
:104CE00038F00E941C2620F0952311F00C94D12559
:104CF0000C94D72511240C9457260E94342670F367
:104D0000959FC1F3950F50E0551F629FF001729F70
:104D1000BB27F00DB11D639FAA27F00DB11DAA1F7F
:104D2000649F6627B00DA11D661F829F2227B00DCC
:104D3000A11D621F739FB00DA11D621F839FA00D57
:104D4000611D221F749F3327A00D611D231F849FA7
:104D5000600D211D822F762F6A2F11249F575040FE
:104D60009AF0F1F088234AF0EE0FFF1FBB1F661F79
:104D7000771F881F91505040A9F79E3F510580F042
:104D80000C94D1250C9457265F3FE4F3983ED4F35E
:104D9000869577956795B795F795E7959F5FC1F7E6
:104DA000FE2B880F911D9695879597F9089519F414
:104DB00016F40C94D7250C9426270E943C26B8F3B1
:104DC0009923C9F3B6F39F57550B87FF0E943427E9
:104DD0000024A0E640EA900180585695979528F463
:104DE000805C660F771F881F20F02617370748075B
:104DF00030F4621B730B840B202931294A2BA695B2
:104E000017940794202531254A2758F7660F771FF6
:104E1000881F20F026173707480730F4620B730B02
:104E2000840B200D311D411DA09581F7B901842F00
:104E30009158880F9695879508959B01AC010C9425
:104E40006A260E94AD25880B990B08959F3F31F08B
:104E5000915020F4879577956795B795880F911DA8
:104E60009695879597F9089591505040660F771F52
:0A4E7000881FD2F70895F894FFCFD1
:104E7A000000803F0000803F0000803F0000FA3BB6
:104E8A0000007A3C0000FA3C00007A3D00008038BD
:104E9A0000000039000080390000003A00000000DC
:104EAA0010037A02A7025D03D802B602CA02000002
:104EBA0000002A06FD055906D305F605E305D405C3
:104ECA000D0A006E616E00696E66006F76660049B3
:104EDA003243204552524F5220434F4445203A20F4
:104EEA00004D5055393235302057484F20414D201A
:104EFA0049203D2000414B383936332057484F204E
:104F0A00414D2049203D20004D6167204661637470
:104F1A006F72792043616C6962726174696F6E2085
:104F2A0056616C7565733A2000582D417869732073
:104F3A0073656E7369746976697479206F666673CE
:104F4A0065742076616C75652000592D4178697306
:104F5A002073656E7369746976697479206F666601
:104F6A007365742076616C756520005A2D417869E5
:104F7A00732073656E7369746976697479206F66D4
:104F8A00667365742076616C75652000436F756C75
:104F9A0064206E6F7420636F6E6E65637420746F25
:104FAA0020414B3839363300436F756C64206E6F7D
:104FBA007420636F6E6E65637420746F204D505554
:064FCA0039323530000011
:00000001FF
